:100000000C9434000C9451000C9451000C94510049
:100010000C9451000C9451000C9451000C9451001C
:100020000C9451000C9451000C9451000C9451000C
:100030000C9451000C9451000C9451000C945100FC
:100040000C9451000C9451000C9451000C945100EC
:100050000C9451000C9451000C9451000C945100DC
:100060000C9451000C94510011241FBECFEFD8E026
:10007000DEBFCDBF21E0AEEEB1E001C01D92A63FD4
:10008000B207E1F711E0A0E0B1E0EEE9F7E002C06D
:1000900005900D92AE3EB107D9F70E9461000C9415
:1000A000CD030C940000892B49F081EA93E59093ED
:1000B000EF018093EE018FEF9FEF089590E080E0D5
:1000C0000895EF92FF920F931F93CF93DF93CDB7D5
:1000D000DEB7D2500FB6F894DEBF0FBECDBF80E0C2
:1000E00091E09F938F9380E191E09F938F9311E034
:1000F0001F931F929E012F5F3F4F79013F932F93D4
:100100000E94E800C7010E9453000FB6F894DEBFBA
:100110000FBECDBF892B99F08FE391E00E94BD0007
:1001200081E090E0DE5F0FB6F894DEBF0FBECDBF7A
:10013000DF91CF911F910F91FF90EF90089581E68D
:1001400091E09F938F938FE691E09F938F931F93FE
:100150001F928E010F5F1E4F1F930F930E94E800A6
:10016000C8010E9453000FB6F894DEBF0FBECDBF8A
:100170000097C1F28BEB91E0D1CF0F931F93CF93F8
:10018000DF93E091F201F091F3012381EC0110E0A3
:1001900000E021FD08C00FEF1FEF14C00995892B67
:1001A00011F00FEF1FEF89916091F2017091F3014F
:1001B000DB011896ED91FC918111F0CF8AE0099551
:1001C000892B49F7C801DF91CF911F910F910895B5
:1001D000AEE0B0E0EEEEF0E00C94A4030D891E89D1
:1001E0008F89988D26E02C831A83098397FF02C09C
:1001F00080E090E801979E838D83AE01455E5F4F5E
:10020000698D7A8DCE0101960E9418014D815E8123
:1002100057FD0AC02F813885421753070CF49A0105
:10022000020F131FF80110822E96E4E00C94C00315
:10023000ABE0B0E0EEE1F1E00C9496037C013B0111
:100240008A01FC0117821682838181FFC8C1CE0119
:1002500001965C01F7019381F30193FD859193FF72
:1002600081913F01882309F453C1853239F493FD0C
:10027000859193FF81913F01853229F4B70190E088
:100280000E940803E7CF912C212C312CFFE1F315BC
:1002900038F08B3211F190F4803209F1833229F178
:1002A00037FC3CC020ED280F2A3050F536FE20C028
:1002B0008AE0989E200D1124922E06C08D3291F076
:1002C000803371F7689430F8F30193FD859193FFC3
:1002D00081913F018111DACF21C0689431F868948F
:1002E00032F8F2CF689433F8EFCF689434F8ECCF5B
:1002F000EAE02E9E200D1124222E689435F8E4CFDA
:100300008E3229F436FC04C1689436F8DDCF8C3681
:1003100019F4689437F8D8CF8836B1F2982F9F7DBA
:1003200095549330E0F08336A1F18337C1F18335E2
:1003300009F063C02801F2E04F0E511CF801C080A3
:10034000D180692D70E036FC02C06FEF7FEFC601EF
:100350000E94F2024C01689437F882010AC00C5FD7
:100360001F4FFFE3F98388248394912C6501E8945F
:1003700037F833FE2DC0522C8114910471F55520AD
:1003800009F468CFB70180E290E00E9408035A9414
:10039000F6CFF801808189830E5F1F4FE4CF2801DB
:1003A000F2E04F0E511CF801C080D180692D70E041
:1003B00036FC02C06FEF7FEFC6010E94FD024C01C8
:1003C0008201D5CFB70180E290E00E9408032A9411
:1003D0002814190409F0B0F7CECFF60137FC859147
:1003E00037FE81916F01B70190E00E940803511020
:1003F0005A94F1E08F1A9108BFCF843619F08936EC
:1004000009F077C0F80137FE6BC06081718182818D
:1004100093810C5F1F4FF32DFF763F2E97FF09C08E
:1004200090958095709561957F4F8F4F9F4F689401
:1004300037F82AE030E0A5010E943803C82ECA1818
:100440008C2C432C36FE0CC0E89440F8C91440F4C0
:1004500034FE05C032FC03C0F32DFE7E4F2E892CE6
:1004600044FE95C0FE01EC0DF11D8081803309F042
:1004700087C0242D297E422E842D8870582E43FC5F
:1004800095C040FE8FC09C2C821418F42C0C922C2A
:10049000981844FE91C0B70180E390E00E940803E1
:1004A00042FE09C088E790E041FE02C088E590E086
:1004B000B7010E940803C91408F48AC0CA94D12C59
:1004C0009FEFC91AD90ACA0CDB1CF60182916F0191
:1004D000B70190E00E940803AC14BD04B1F74FCF00
:1004E00060817181072E000C880B990B0E5F1F4FE6
:1004F00092CFD32CE894D4F82AE030E0853739F154
:10050000232D297FD22E8F3601F148F48835A9F0AA
:10051000F701868197812B96E2E10C94B203803734
:1005200049F08837A9F7D4FE02C06894D2F820E1D8
:1005300030E00DC06894D4F8F6CF34FE03C0822FAB
:100540008660D82E20E132E002C028E030E0F801D9
:10055000D7FE0FC060817181828193810C5F1F4F34
:10056000A5010E943803C82ECA183D2CE89437F81C
:1005700067CF6081718190E080E00E5F1F4FF0CF08
:1005800042FC02C0839478CF8394839475CF842DEA
:10059000867809F471CFF6CFB70180E290E00E942F
:1005A000080383948214C0F3512C73CF522C581833
:1005B000821408F46ECFF8CF842D867809F47BCFAF
:1005C0008BE241FE80E247FC8DE2B70190E071CF03
:1005D000B70180E390E00E9408039A946CCF8FEFFC
:1005E0009FEF99CFFC010590615070400110D8F742
:1005F000809590958E0F9F1F0895FC01615070406B
:1006000001900110D8F7809590958E0F9F1F089547
:100610000F931F93CF93DF93182F092FEB018B813B
:1006200081FD09C01FEF0FEF812F902FDF91CF9138
:100630001F910F91089582FF14C02E813F818C81FC
:100640009D81281739073CF4E881F981CF01019693
:100650009983888310838E819F8101969F838E83E7
:10066000E3CFE885F985812F0995892BA1F3DACFAE
:10067000FA01AA27283051F1203181F1E8946F93D3
:100680006E7F6E5F7F4F8F4F9F4FAF4FB1E03ED079
:10069000B4E03CD0670F781F891F9A1FA11D680F17
:1006A000791F8A1F911DA11D6A0F711D811D911D4A
:1006B000A11D20D009F468943F912AE0269F1124BF
:1006C0003019305D3193DEF6CF010895462F477023
:1006D000405D4193B3E00FD0C9F7F6CF462F4F707E
:1006E000405D4A3318F0495D31FD4052419302D0DC
:1006F000A9F7EACFB4E0A695979587957795679582
:10070000BA95C9F700976105710508959B01AC0181
:100710000A2E06945795479537952795BA95C9F7A8
:10072000620F731F841F951FA01D08952F923F9283
:100730004F925F926F927F928F929F92AF92BF92F1
:10074000CF92DF92EF92FF920F931F93CF93DF939D
:10075000CDB7DEB7CA1BDB0B0FB6F894DEBF0FBEFA
:10076000CDBF09942A88398848885F846E847D8447
:100770008C849B84AA84B984C884DF80EE80FD8049
:100780000C811B81AA81B981CE0FD11D0FB6F894BF
:0E079000DEBF0FBECDBFED010895F894FFCF80
:10079E0061726475696E6F3A6176723A756E6F004A
:1007AE0061726475696E6F2D636C6920636F6D7015
:1007BE00696C65202D2D6671626E202573202D2D9E
:1007CE006F75747075742D646972202E202E00451D
:1007DE0072726F7220616C20636F6D70696C6172E2
:1007EE0020656C206172636869766F202E696E6F6A
:1007FE000074657374732E696E6F2E686578006170
:10080E00767264756465202D76202D7061746D6529
:10081E00676133323870202D6361726475696E6F53
:10082E00202D502F6465762F74747941434D3020FE
:10083E002D62313135323030202D44202D55666CED
:10084E006173683A773A25733A69004572726F722E
:10085E0020616C2063617267617220656C20617229
:10086E00636869766F202E68657820656E20656CEA
:0E087E002041726475696E6F20556E6F000028
:00000001FF
